{
    "contractName": "TRC20Detailed",
    "abi": [
        {
            "inputs": [
                {
                    "internalType": "string",
                    "name": "_name",
                    "type": "string"
                },
                {
                    "internalType": "string",
                    "name": "_symbol",
                    "type": "string"
                },
                {
                    "internalType": "uint8",
                    "name": "_decimals",
                    "type": "uint8"
                },
                {
                    "internalType": "uint256",
                    "name": "initialSupply",
                    "type": "uint256"
                }
            ],
            "stateMutability": "nonpayable",
            "type": "constructor"
        },
        {
            "anonymous": false,
            "inputs": [
                {
                    "indexed": true,
                    "internalType": "address",
                    "name": "_user",
                    "type": "address"
                }
            ],
            "name": "AddedBlackList",
            "type": "event"
        },
        {
            "anonymous": false,
            "inputs": [
                {
                    "indexed": true,
                    "internalType": "address",
                    "name": "owner",
                    "type": "address"
                },
                {
                    "indexed": true,
                    "internalType": "address",
                    "name": "spender",
                    "type": "address"
                },
                {
                    "indexed": false,
                    "internalType": "uint256",
                    "name": "value",
                    "type": "uint256"
                }
            ],
            "name": "Approval",
            "type": "event"
        },
        {
            "anonymous": false,
            "inputs": [
                {
                    "indexed": true,
                    "internalType": "address",
                    "name": "_blackListedUser",
                    "type": "address"
                },
                {
                    "indexed": false,
                    "internalType": "uint256",
                    "name": "_balance",
                    "type": "uint256"
                }
            ],
            "name": "DestroyedBlackFunds",
            "type": "event"
        },
        {
            "anonymous": false,
            "inputs": [
                {
                    "indexed": false,
                    "internalType": "uint256",
                    "name": "value",
                    "type": "uint256"
                }
            ],
            "name": "Issue",
            "type": "event"
        },
        {
            "anonymous": false,
            "inputs": [
                {
                    "indexed": true,
                    "internalType": "address",
                    "name": "previousOwner",
                    "type": "address"
                },
                {
                    "indexed": true,
                    "internalType": "address",
                    "name": "newOwner",
                    "type": "address"
                }
            ],
            "name": "OwnershipTransferred",
            "type": "event"
        },
        {
            "anonymous": false,
            "inputs": [
                {
                    "indexed": false,
                    "internalType": "uint256",
                    "name": "value",
                    "type": "uint256"
                }
            ],
            "name": "Redeem",
            "type": "event"
        },
        {
            "anonymous": false,
            "inputs": [
                {
                    "indexed": true,
                    "internalType": "address",
                    "name": "_user",
                    "type": "address"
                }
            ],
            "name": "RemovedBlackList",
            "type": "event"
        },
        {
            "anonymous": false,
            "inputs": [
                {
                    "indexed": true,
                    "internalType": "address",
                    "name": "from",
                    "type": "address"
                },
                {
                    "indexed": true,
                    "internalType": "address",
                    "name": "to",
                    "type": "address"
                },
                {
                    "indexed": false,
                    "internalType": "uint256",
                    "name": "value",
                    "type": "uint256"
                }
            ],
            "name": "Transfer",
            "type": "event"
        },
        {
            "inputs": [
                {
                    "internalType": "address",
                    "name": "_evilUser",
                    "type": "address"
                }
            ],
            "name": "addBlackList",
            "outputs": [],
            "stateMutability": "nonpayable",
            "type": "function"
        },
        {
            "inputs": [
                {
                    "internalType": "address",
                    "name": "owner",
                    "type": "address"
                },
                {
                    "internalType": "address",
                    "name": "spender",
                    "type": "address"
                }
            ],
            "name": "allowance",
            "outputs": [
                {
                    "internalType": "uint256",
                    "name": "",
                    "type": "uint256"
                }
            ],
            "stateMutability": "view",
            "type": "function"
        },
        {
            "inputs": [
                {
                    "internalType": "address",
                    "name": "spender",
                    "type": "address"
                },
                {
                    "internalType": "uint256",
                    "name": "value",
                    "type": "uint256"
                }
            ],
            "name": "approve",
            "outputs": [
                {
                    "internalType": "bool",
                    "name": "",
                    "type": "bool"
                }
            ],
            "stateMutability": "nonpayable",
            "type": "function"
        },
        {
            "inputs": [
                {
                    "internalType": "address",
                    "name": "account",
                    "type": "address"
                }
            ],
            "name": "balanceOf",
            "outputs": [
                {
                    "internalType": "uint256",
                    "name": "",
                    "type": "uint256"
                }
            ],
            "stateMutability": "view",
            "type": "function"
        },
        {
            "inputs": [],
            "name": "decimals",
            "outputs": [
                {
                    "internalType": "uint8",
                    "name": "",
                    "type": "uint8"
                }
            ],
            "stateMutability": "view",
            "type": "function"
        },
        {
            "inputs": [
                {
                    "internalType": "address",
                    "name": "spender",
                    "type": "address"
                },
                {
                    "internalType": "uint256",
                    "name": "subtractedValue",
                    "type": "uint256"
                }
            ],
            "name": "decreaseAllowance",
            "outputs": [
                {
                    "internalType": "bool",
                    "name": "",
                    "type": "bool"
                }
            ],
            "stateMutability": "nonpayable",
            "type": "function"
        },
        {
            "inputs": [
                {
                    "internalType": "address",
                    "name": "_blackListedUser",
                    "type": "address"
                }
            ],
            "name": "destroyBlackFunds",
            "outputs": [],
            "stateMutability": "nonpayable",
            "type": "function"
        },
        {
            "inputs": [
                {
                    "internalType": "address",
                    "name": "spender",
                    "type": "address"
                },
                {
                    "internalType": "uint256",
                    "name": "addedValue",
                    "type": "uint256"
                }
            ],
            "name": "increaseAllowance",
            "outputs": [
                {
                    "internalType": "bool",
                    "name": "",
                    "type": "bool"
                }
            ],
            "stateMutability": "nonpayable",
            "type": "function"
        },
        {
            "inputs": [
                {
                    "internalType": "address",
                    "name": "",
                    "type": "address"
                }
            ],
            "name": "isBlackListed",
            "outputs": [
                {
                    "internalType": "bool",
                    "name": "",
                    "type": "bool"
                }
            ],
            "stateMutability": "view",
            "type": "function"
        },
        {
            "inputs": [
                {
                    "internalType": "uint256",
                    "name": "amount",
                    "type": "uint256"
                }
            ],
            "name": "issue",
            "outputs": [],
            "stateMutability": "nonpayable",
            "type": "function"
        },
        {
            "inputs": [],
            "name": "name",
            "outputs": [
                {
                    "internalType": "string",
                    "name": "",
                    "type": "string"
                }
            ],
            "stateMutability": "view",
            "type": "function"
        },
        {
            "inputs": [],
            "name": "owner",
            "outputs": [
                {
                    "internalType": "address",
                    "name": "",
                    "type": "address"
                }
            ],
            "stateMutability": "view",
            "type": "function"
        },
        {
            "inputs": [
                {
                    "internalType": "uint256",
                    "name": "amount",
                    "type": "uint256"
                }
            ],
            "name": "redeem",
            "outputs": [],
            "stateMutability": "nonpayable",
            "type": "function"
        },
        {
            "inputs": [
                {
                    "internalType": "address",
                    "name": "_clearedUser",
                    "type": "address"
                }
            ],
            "name": "removeBlackList",
            "outputs": [],
            "stateMutability": "nonpayable",
            "type": "function"
        },
        {
            "inputs": [],
            "name": "symbol",
            "outputs": [
                {
                    "internalType": "string",
                    "name": "",
                    "type": "string"
                }
            ],
            "stateMutability": "view",
            "type": "function"
        },
        {
            "inputs": [],
            "name": "totalSupply",
            "outputs": [
                {
                    "internalType": "uint256",
                    "name": "",
                    "type": "uint256"
                }
            ],
            "stateMutability": "view",
            "type": "function"
        },
        {
            "inputs": [
                {
                    "internalType": "address",
                    "name": "recipient",
                    "type": "address"
                },
                {
                    "internalType": "uint256",
                    "name": "amount",
                    "type": "uint256"
                }
            ],
            "name": "transfer",
            "outputs": [
                {
                    "internalType": "bool",
                    "name": "",
                    "type": "bool"
                }
            ],
            "stateMutability": "nonpayable",
            "type": "function"
        },
        {
            "inputs": [
                {
                    "internalType": "address",
                    "name": "sender",
                    "type": "address"
                },
                {
                    "internalType": "address",
                    "name": "recipient",
                    "type": "address"
                },
                {
                    "internalType": "uint256",
                    "name": "amount",
                    "type": "uint256"
                }
            ],
            "name": "transferFrom",
            "outputs": [
                {
                    "internalType": "bool",
                    "name": "",
                    "type": "bool"
                }
            ],
            "stateMutability": "nonpayable",
            "type": "function"
        },
        {
            "inputs": [
                {
                    "internalType": "address",
                    "name": "newOwner",
                    "type": "address"
                }
            ],
            "name": "transferOwnership",
            "outputs": [],
            "stateMutability": "nonpayable",
            "type": "function"
        }
    ],
    "bytecode": "60806040523480156200001157600080fd5b50604051620014f8380380620014f883398101604081905262000034916200039e565b600080546001600160a01b0319163317905583516200005b9060059060208701906200022b565b508251620000719060069060208601906200022b565b506007805460ff191660ff8416908117909155620000aa9033906200009890600a6200053c565b620000a4908462000551565b620000b4565b50505050620005cb565b6001600160a01b038216620001105760405162461bcd60e51b815260206004820152601f60248201527f45524332303a206d696e7420746f20746865207a65726f20616464726573730060448201526064015b60405180910390fd5b6200012c81600454620001bf60201b620007881790919060201c565b6004556001600160a01b0382166000908152600260209081526040909120546200016191839062000788620001bf821b17901c565b6001600160a01b0383166000818152600260205260408082209390935591519091907fddf252ad1be2c89b69c2b068fc378daa952ba7f163c4a11628f55a4df523b3ef90620001b39085815260200190565b60405180910390a35050565b600080620001ce838562000573565b905083811015620002225760405162461bcd60e51b815260206004820152601b60248201527f536166654d6174683a206164646974696f6e206f766572666c6f770000000000604482015260640162000107565b90505b92915050565b82805462000239906200058e565b90600052602060002090601f0160209004810192826200025d5760008555620002a8565b82601f106200027857805160ff1916838001178555620002a8565b82800160010185558215620002a8579182015b82811115620002a85782518255916020019190600101906200028b565b50620002b6929150620002ba565b5090565b5b80821115620002b65760008155600101620002bb565b634e487b7160e01b600052604160045260246000fd5b600082601f830112620002f957600080fd5b81516001600160401b0380821115620003165762000316620002d1565b604051601f8301601f19908116603f01168101908282118183101715620003415762000341620002d1565b816040528381526020925086838588010111156200035e57600080fd5b600091505b8382101562000382578582018301518183018401529082019062000363565b83821115620003945760008385830101525b9695505050505050565b60008060008060808587031215620003b557600080fd5b84516001600160401b0380821115620003cd57600080fd5b620003db88838901620002e7565b95506020870151915080821115620003f257600080fd5b506200040187828801620002e7565b935050604085015160ff811681146200041957600080fd5b6060959095015193969295505050565b634e487b7160e01b600052601160045260246000fd5b600181815b808511156200048057816000190482111562000464576200046462000429565b808516156200047257918102915b93841c939080029062000444565b509250929050565b600082620004995750600162000225565b81620004a85750600062000225565b8160018114620004c15760028114620004cc57620004ec565b600191505062000225565b60ff841115620004e057620004e062000429565b50506001821b62000225565b5060208310610133831016604e8410600b841016171562000511575081810a62000225565b6200051d83836200043f565b806000190482111562000534576200053462000429565b029392505050565b60006200054a838362000488565b9392505050565b60008160001904831182151516156200056e576200056e62000429565b500290565b6000821982111562000589576200058962000429565b500190565b600181811c90821680620005a357607f821691505b60208210811415620005c557634e487b7160e01b600052602260045260246000fd5b50919050565b610f1d80620005db6000396000f3fe608060405234801561001057600080fd5b50600436106101215760003560e01c806395d89b41116100ad578063dd62ed3e11610071578063dd62ed3e1461027b578063e47d6060146102b4578063e4997dc5146102d7578063f2fde38b146102ea578063f3bdc228146102fd57600080fd5b806395d89b4114610227578063a457c2d71461022f578063a9059cbb14610242578063cc872b6614610255578063db006a751461026857600080fd5b806323b872dd116100f457806323b872dd1461018e578063313ce567146101a157806339509351146101c057806370a08231146101d35780638da5cb5b146101fc57600080fd5b806306fdde0314610126578063095ea7b3146101445780630ecb93c01461016757806318160ddd1461017c575b600080fd5b61012e610310565b60405161013b9190610d09565b60405180910390f35b610157610152366004610d7a565b61039e565b604051901515815260200161013b565b61017a610175366004610da4565b6103b4565b005b6004545b60405190815260200161013b565b61015761019c366004610dbf565b61041a565b6007546101ae9060ff1681565b60405160ff909116815260200161013b565b6101576101ce366004610d7a565b61046b565b6101806101e1366004610da4565b6001600160a01b031660009081526002602052604090205490565b60005461020f906001600160a01b031681565b6040516001600160a01b03909116815260200161013b565b61012e6104a1565b61015761023d366004610d7a565b6104ae565b610157610250366004610d7a565b6104e4565b61017a610263366004610dfb565b6104f1565b61017a610276366004610dfb565b61057b565b610180610289366004610e14565b6001600160a01b03918216600090815260036020908152604080832093909416825291909152205490565b6101576102c2366004610da4565b60016020526000908152604090205460ff1681565b61017a6102e5366004610da4565b6105fd565b61017a6102f8366004610da4565b61065d565b61017a61030b366004610da4565b6106e2565b6005805461031d90610e47565b80601f016020809104026020016040519081016040528092919081815260200182805461034990610e47565b80156103965780601f1061036b57610100808354040283529160200191610396565b820191906000526020600020905b81548152906001019060200180831161037957829003601f168201915b505050505081565b60006103ab3384846107f3565b50600192915050565b6000546001600160a01b031633146103cb57600080fd5b6001600160a01b0381166000818152600160208190526040808320805460ff1916909217909155517f42e160154868087d6bfdc0ca23d96a1c1cfa32f1b72ba9ba27b69b98a0d819dc9190a250565b6000610427848484610918565b6001600160a01b03841660009081526003602090815260408083203380855292529091205461046191869161045c9086610abd565b6107f3565b5060019392505050565b3360008181526003602090815260408083206001600160a01b038716845290915281205490916103ab91859061045c9086610788565b6006805461031d90610e47565b3360008181526003602090815260408083206001600160a01b038716845290915281205490916103ab91859061045c9086610abd565b60006103ab338484610918565b6000546001600160a01b0316331461050857600080fd5b6105123382610b23565b6040518181527fcb8241adb0c3fdb35b70c24ce35c5eb0c17af7431c99f827d44a445ca624176a9060200160405180910390a1600080546040518381526001600160a01b039091169190600080516020610ec8833981519152906020015b60405180910390a350565b6000546001600160a01b0316331461059257600080fd5b61059c3382610bf7565b6040518181527f702d5967f45f6513a38ffc42d6ba9bf230bd40e8f53b16363c7eb4fd2deb9a449060200160405180910390a1600080546040518381526001600160a01b0390911690600080516020610ec883398151915290602001610570565b6000546001600160a01b0316331461061457600080fd5b6001600160a01b038116600081815260016020526040808220805460ff19169055517fd7e9ec6e6ecd65492dce6bf513cd6867560d49544421d0783ddf06e76c24470c9190a250565b6000546001600160a01b0316331461067457600080fd5b6001600160a01b03811661068757600080fd5b600080546040516001600160a01b03808516939216917f8be0079c531659141344cd1fd0a4f28419497f9722a3daafe3b4186f6b6457e091a3600080546001600160a01b0319166001600160a01b0392909216919091179055565b6000546001600160a01b031633146106f957600080fd5b6001600160a01b03811660009081526001602052604090205460ff1661071e57600080fd5b6001600160a01b0381166000908152600260205260409020546107418282610cc6565b816001600160a01b03167f61e6e66b0d6339b2980aecc6ccc0039736791f0ccde9ed512e789a7fbdd698c68260405161077c91815260200190565b60405180910390a25050565b6000806107958385610e98565b9050838110156107ec5760405162461bcd60e51b815260206004820152601b60248201527f536166654d6174683a206164646974696f6e206f766572666c6f77000000000060448201526064015b60405180910390fd5b9392505050565b6001600160a01b0383166108555760405162461bcd60e51b8152602060048201526024808201527f45524332303a20617070726f76652066726f6d20746865207a65726f206164646044820152637265737360e01b60648201526084016107e3565b6001600160a01b0382166108b65760405162461bcd60e51b815260206004820152602260248201527f45524332303a20617070726f766520746f20746865207a65726f206164647265604482015261737360f01b60648201526084016107e3565b6001600160a01b0383811660008181526003602090815260408083209487168084529482529182902085905590518481527f8c5be1e5ebec7d5bd14f71427d1e84f3dd0314c0f7b2291e5b200ac8c7c3b92591015b60405180910390a3505050565b6001600160a01b03831660009081526001602052604090205460ff1615801561095a57506001600160a01b03821660009081526001602052604090205460ff16155b61096357600080fd5b6001600160a01b0383166109c75760405162461bcd60e51b815260206004820152602560248201527f45524332303a207472616e736665722066726f6d20746865207a65726f206164604482015264647265737360d81b60648201526084016107e3565b6001600160a01b038216610a295760405162461bcd60e51b815260206004820152602360248201527f45524332303a207472616e7366657220746f20746865207a65726f206164647260448201526265737360e81b60648201526084016107e3565b6001600160a01b038316600090815260026020526040902054610a4c9082610abd565b6001600160a01b038085166000908152600260205260408082209390935590841681522054610a7b9082610788565b6001600160a01b038084166000818152600260205260409081902093909355915190851690600080516020610ec88339815191529061090b9085815260200190565b600082821115610b0f5760405162461bcd60e51b815260206004820152601e60248201527f536166654d6174683a207375627472616374696f6e206f766572666c6f77000060448201526064016107e3565b6000610b1b8385610eb0565b949350505050565b6001600160a01b038216610b795760405162461bcd60e51b815260206004820152601f60248201527f45524332303a206d696e7420746f20746865207a65726f20616464726573730060448201526064016107e3565b600454610b869082610788565b6004556001600160a01b038216600090815260026020526040902054610bac9082610788565b6001600160a01b038316600081815260026020526040808220939093559151909190600080516020610ec883398151915290610beb9085815260200190565b60405180910390a35050565b6001600160a01b038216610c575760405162461bcd60e51b815260206004820152602160248201527f45524332303a206275726e2066726f6d20746865207a65726f206164647265736044820152607360f81b60648201526084016107e3565b600454610c649082610abd565b6004556001600160a01b038216600090815260026020526040902054610c8a9082610abd565b6001600160a01b038316600081815260026020526040808220939093559151600080516020610ec883398151915290610beb9085815260200190565b610cd08282610bf7565b6001600160a01b038216600090815260036020908152604080832033808552925290912054610d0591849161045c9085610abd565b5050565b600060208083528351808285015260005b81811015610d3657858101830151858201604001528201610d1a565b81811115610d48576000604083870101525b50601f01601f1916929092016040019392505050565b80356001600160a01b0381168114610d7557600080fd5b919050565b60008060408385031215610d8d57600080fd5b610d9683610d5e565b946020939093013593505050565b600060208284031215610db657600080fd5b6107ec82610d5e565b600080600060608486031215610dd457600080fd5b610ddd84610d5e565b9250610deb60208501610d5e565b9150604084013590509250925092565b600060208284031215610e0d57600080fd5b5035919050565b60008060408385031215610e2757600080fd5b610e3083610d5e565b9150610e3e60208401610d5e565b90509250929050565b600181811c90821680610e5b57607f821691505b60208210811415610e7c57634e487b7160e01b600052602260045260246000fd5b50919050565b634e487b7160e01b600052601160045260246000fd5b60008219821115610eab57610eab610e82565b500190565b600082821015610ec257610ec2610e82565b50039056feddf252ad1be2c89b69c2b068fc378daa952ba7f163c4a11628f55a4df523b3efa26469706673582212208d33a8f925bb56587a4ffb017d9c4c04b7a1f54991a96408a73987aaa62b53ac64736f6c634300080a0033",
    "sourcePath": "c:/Users/STC/Documents/GitHub/CHEC-BLOCKCHAIN/smart-contracts/Token-TRC20/TRC20Detailed.sol",
    "compiler": {
        "name": "solc",
        "version": "0.8.10+commit.fc410830"
    },
    "functionHashes": {
        "addBlackList(address)": "0ecb93c0",
        "allowance(address,address)": "dd62ed3e",
        "approve(address,uint256)": "095ea7b3",
        "balanceOf(address)": "70a08231",
        "decimals()": "313ce567",
        "decreaseAllowance(address,uint256)": "a457c2d7",
        "destroyBlackFunds(address)": "f3bdc228",
        "increaseAllowance(address,uint256)": "39509351",
        "isBlackListed(address)": "e47d6060",
        "issue(uint256)": "cc872b66",
        "name()": "06fdde03",
        "owner()": "8da5cb5b",
        "redeem(uint256)": "db006a75",
        "removeBlackList(address)": "e4997dc5",
        "symbol()": "95d89b41",
        "totalSupply()": "18160ddd",
        "transfer(address,uint256)": "a9059cbb",
        "transferFrom(address,address,uint256)": "23b872dd",
        "transferOwnership(address)": "f2fde38b"
    },
    "gasEstimates": {
        "creation": {
            "codeDepositCost": "773800",
            "executionCost": "infinite",
            "totalCost": "infinite"
        },
        "external": {
            "addBlackList(address)": "27975",
            "allowance(address,address)": "infinite",
            "approve(address,uint256)": "24643",
            "balanceOf(address)": "2626",
            "decimals()": "2358",
            "decreaseAllowance(address,uint256)": "27050",
            "destroyBlackFunds(address)": "infinite",
            "increaseAllowance(address,uint256)": "27078",
            "isBlackListed(address)": "2575",
            "issue(uint256)": "infinite",
            "name()": "infinite",
            "owner()": "2448",
            "redeem(uint256)": "infinite",
            "removeBlackList(address)": "27955",
            "symbol()": "infinite",
            "totalSupply()": "2371",
            "transfer(address,uint256)": "infinite",
            "transferFrom(address,address,uint256)": "infinite",
            "transferOwnership(address)": "30488"
        }
    }
}